{
  "_format": "hh-sol-artifact-1",
  "contractName": "SimpleMarketplace",
  "sourceName": "contracts/SimpleMarketplace.sol",
  "abi": [
    {
      "anonymous": false,
      "inputs": [
        {
          "indexed": false,
          "internalType": "uint256",
          "name": "id",
          "type": "uint256"
        },
        {
          "indexed": false,
          "internalType": "address",
          "name": "buyer",
          "type": "address"
        },
        {
          "indexed": false,
          "internalType": "uint256",
          "name": "quantity",
          "type": "uint256"
        },
        {
          "indexed": false,
          "internalType": "uint256",
          "name": "totalPrice",
          "type": "uint256"
        }
      ],
      "name": "ItemBought",
      "type": "event"
    },
    {
      "anonymous": false,
      "inputs": [
        {
          "indexed": false,
          "internalType": "uint256",
          "name": "id",
          "type": "uint256"
        },
        {
          "indexed": false,
          "internalType": "address",
          "name": "seller",
          "type": "address"
        },
        {
          "indexed": false,
          "internalType": "string",
          "name": "name",
          "type": "string"
        },
        {
          "indexed": false,
          "internalType": "uint256",
          "name": "price",
          "type": "uint256"
        },
        {
          "indexed": false,
          "internalType": "uint256",
          "name": "stock",
          "type": "uint256"
        }
      ],
      "name": "ItemListed",
      "type": "event"
    },
    {
      "anonymous": false,
      "inputs": [
        {
          "indexed": false,
          "internalType": "uint256",
          "name": "id",
          "type": "uint256"
        },
        {
          "indexed": false,
          "internalType": "uint256",
          "name": "oldPrice",
          "type": "uint256"
        },
        {
          "indexed": false,
          "internalType": "uint256",
          "name": "newPrice",
          "type": "uint256"
        }
      ],
      "name": "ItemPriceUpdated",
      "type": "event"
    },
    {
      "anonymous": false,
      "inputs": [
        {
          "indexed": false,
          "internalType": "address",
          "name": "seller",
          "type": "address"
        },
        {
          "indexed": false,
          "internalType": "uint256",
          "name": "amount",
          "type": "uint256"
        }
      ],
      "name": "Withdraw",
      "type": "event"
    },
    {
      "inputs": [
        {
          "internalType": "uint256",
          "name": "id",
          "type": "uint256"
        },
        {
          "internalType": "uint256",
          "name": "quantity",
          "type": "uint256"
        }
      ],
      "name": "buyItem",
      "outputs": [],
      "stateMutability": "payable",
      "type": "function"
    },
    {
      "inputs": [],
      "name": "getAvailableItems",
      "outputs": [
        {
          "components": [
            {
              "internalType": "uint256",
              "name": "id",
              "type": "uint256"
            },
            {
              "internalType": "address payable",
              "name": "seller",
              "type": "address"
            },
            {
              "internalType": "string",
              "name": "name",
              "type": "string"
            },
            {
              "internalType": "uint256",
              "name": "price",
              "type": "uint256"
            },
            {
              "internalType": "uint256",
              "name": "stock",
              "type": "uint256"
            },
            {
              "internalType": "uint256",
              "name": "sold",
              "type": "uint256"
            },
            {
              "internalType": "bool",
              "name": "exists",
              "type": "bool"
            }
          ],
          "internalType": "struct SimpleMarketplace.Item[]",
          "name": "",
          "type": "tuple[]"
        }
      ],
      "stateMutability": "view",
      "type": "function"
    },
    {
      "inputs": [],
      "name": "itemCount",
      "outputs": [
        {
          "internalType": "uint256",
          "name": "",
          "type": "uint256"
        }
      ],
      "stateMutability": "view",
      "type": "function"
    },
    {
      "inputs": [
        {
          "internalType": "uint256",
          "name": "",
          "type": "uint256"
        }
      ],
      "name": "items",
      "outputs": [
        {
          "internalType": "uint256",
          "name": "id",
          "type": "uint256"
        },
        {
          "internalType": "address payable",
          "name": "seller",
          "type": "address"
        },
        {
          "internalType": "string",
          "name": "name",
          "type": "string"
        },
        {
          "internalType": "uint256",
          "name": "price",
          "type": "uint256"
        },
        {
          "internalType": "uint256",
          "name": "stock",
          "type": "uint256"
        },
        {
          "internalType": "uint256",
          "name": "sold",
          "type": "uint256"
        },
        {
          "internalType": "bool",
          "name": "exists",
          "type": "bool"
        }
      ],
      "stateMutability": "view",
      "type": "function"
    },
    {
      "inputs": [
        {
          "internalType": "string",
          "name": "name",
          "type": "string"
        },
        {
          "internalType": "uint256",
          "name": "price",
          "type": "uint256"
        },
        {
          "internalType": "uint256",
          "name": "stock",
          "type": "uint256"
        }
      ],
      "name": "listItem",
      "outputs": [],
      "stateMutability": "nonpayable",
      "type": "function"
    },
    {
      "inputs": [
        {
          "internalType": "address",
          "name": "",
          "type": "address"
        }
      ],
      "name": "sellerBalances",
      "outputs": [
        {
          "internalType": "uint256",
          "name": "",
          "type": "uint256"
        }
      ],
      "stateMutability": "view",
      "type": "function"
    },
    {
      "inputs": [
        {
          "internalType": "uint256",
          "name": "id",
          "type": "uint256"
        },
        {
          "internalType": "uint256",
          "name": "newPrice",
          "type": "uint256"
        }
      ],
      "name": "updatePrice",
      "outputs": [],
      "stateMutability": "nonpayable",
      "type": "function"
    },
    {
      "inputs": [
        {
          "internalType": "uint256",
          "name": "amount",
          "type": "uint256"
        }
      ],
      "name": "withdraw",
      "outputs": [],
      "stateMutability": "nonpayable",
      "type": "function"
    }
  ],
  "bytecode": "0x6080604052348015600f57600080fd5b50611f5f8061001f6000396000f3fe60806040526004361061007b5760003560e01c806382367b2d1161004e57806382367b2d1461013c5780639979c00914610165578063bfb231d214610181578063f1766279146101c45761007b565b80630c43d6f3146100805780632e1a7d4d146100ab578063607eb4e4146100d45780636bfb0d0114610111575b600080fd5b34801561008c57600080fd5b506100956101ed565b6040516100a2919061113d565b60405180910390f35b3480156100b757600080fd5b506100d260048036038101906100cd919061119f565b6104df565b005b3480156100e057600080fd5b506100fb60048036038101906100f6919061120a565b61067c565b6040516101089190611246565b60405180910390f35b34801561011d57600080fd5b50610126610694565b6040516101339190611246565b60405180910390f35b34801561014857600080fd5b50610163600480360381019061015e9190611261565b61069a565b005b61017f600480360381019061017a9190611261565b610874565b005b34801561018d57600080fd5b506101a860048036038101906101a3919061119f565b610ba0565b6040516101bb9796959493929190611309565b60405180910390f35b3480156101d057600080fd5b506101eb60048036038101906101e691906114b4565b610c97565b005b6060600080600190505b6000548111610282576001600082815260200190815260200160002060060160009054906101000a900460ff16801561025b575060016000828152602001908152602001600020600401546001600083815260200190815260200160002060050154105b1561026f57818061026b90611552565b9250505b808061027a90611552565b9150506101f7565b5060008167ffffffffffffffff81111561029f5761029e611389565b5b6040519080825280602002602001820160405280156102d857816020015b6102c5610e85565b8152602001906001900390816102bd5790505b509050600080600190505b60005481116104d5576001600082815260200190815260200160002060060160009054906101000a900460ff168015610347575060016000828152602001908152602001600020600401546001600083815260200190815260200160002060050154105b156104c257600160008281526020019081526020016000206040518060e0016040529081600082015481526020016001820160009054906101000a900473ffffffffffffffffffffffffffffffffffffffff1673ffffffffffffffffffffffffffffffffffffffff1673ffffffffffffffffffffffffffffffffffffffff1681526020016002820180546103da906115c9565b80601f0160208091040260200160405190810160405280929190818152602001828054610406906115c9565b80156104535780601f1061042857610100808354040283529160200191610453565b820191906000526020600020905b81548152906001019060200180831161043657829003601f168201915b505050505081526020016003820154815260200160048201548152602001600582015481526020016006820160009054906101000a900460ff1615151515815250508383815181106104a8576104a76115fa565b5b602002602001018190525081806104be90611552565b9250505b80806104cd90611552565b9150506102e3565b5081935050505090565b6000600260003373ffffffffffffffffffffffffffffffffffffffff1673ffffffffffffffffffffffffffffffffffffffff16815260200190815260200160002054905060008211610566576040517f08c379a000000000000000000000000000000000000000000000000000000000815260040161055d90611675565b60405180910390fd5b808211156105a9576040517f08c379a00000000000000000000000000000000000000000000000000000000081526004016105a0906116e1565b60405180910390fd5b81816105b59190611701565b600260003373ffffffffffffffffffffffffffffffffffffffff1673ffffffffffffffffffffffffffffffffffffffff168152602001908152602001600020819055503373ffffffffffffffffffffffffffffffffffffffff166108fc839081150290604051600060405180830381858888f1935050505015801561063e573d6000803e3d6000fd5b507f884edad9ce6fa2440d8a54cc123490eb96d2768479d49ff9c7366125a94243643383604051610670929190611744565b60405180910390a15050565b60026020528060005260406000206000915090505481565b60005481565b60006001600084815260200190815260200160002090508060060160009054906101000a900460ff16610702576040517f08c379a00000000000000000000000000000000000000000000000000000000081526004016106f9906117b9565b60405180910390fd5b8060010160009054906101000a900473ffffffffffffffffffffffffffffffffffffffff1673ffffffffffffffffffffffffffffffffffffffff163373ffffffffffffffffffffffffffffffffffffffff1614610794576040517f08c379a000000000000000000000000000000000000000000000000000000000815260040161078b90611825565b60405180910390fd5b600082116107d7576040517f08c379a00000000000000000000000000000000000000000000000000000000081526004016107ce90611891565b60405180910390fd5b8060040154816005015410610821576040517f08c379a0000000000000000000000000000000000000000000000000000000008152600401610818906118fd565b60405180910390fd5b6000816003015490508282600301819055507f1302e656799a0b067b6860cda5aaf6458f2f5878687baf652acdea509bbc73f28482856040516108669392919061191d565b60405180910390a150505050565b60006001600084815260200190815260200160002090508060060160009054906101000a900460ff166108dc576040517f08c379a00000000000000000000000000000000000000000000000000000000081526004016108d3906117b9565b60405180910390fd5b6000821161091f576040517f08c379a0000000000000000000000000000000000000000000000000000000008152600401610916906119c6565b60405180910390fd5b806004015482826005015461093491906119e6565b1115610975576040517f08c379a000000000000000000000000000000000000000000000000000000000815260040161096c90611a66565b60405180910390fd5b8181600301546109859190611a86565b3410156109c7576040517f08c379a00000000000000000000000000000000000000000000000000000000081526004016109be90611b14565b60405180910390fd5b8060010160009054906101000a900473ffffffffffffffffffffffffffffffffffffffff1673ffffffffffffffffffffffffffffffffffffffff163373ffffffffffffffffffffffffffffffffffffffff1603610a59576040517f08c379a0000000000000000000000000000000000000000000000000000000008152600401610a5090611b80565b60405180910390fd5b6000828260030154610a6b9190611a86565b905082826005016000828254610a8191906119e6565b9250508190555080600260008460010160009054906101000a900473ffffffffffffffffffffffffffffffffffffffff1673ffffffffffffffffffffffffffffffffffffffff1673ffffffffffffffffffffffffffffffffffffffff1681526020019081526020016000206000828254610afb91906119e6565b9250508190555080341115610b5d573373ffffffffffffffffffffffffffffffffffffffff166108fc8234610b309190611701565b9081150290604051600060405180830381858888f19350505050158015610b5b573d6000803e3d6000fd5b505b7f8c912d39752dc1f52744615b409bb9cd946102bab9b0e6316d0a6ea0c3a1372a84338584604051610b929493929190611ba0565b60405180910390a150505050565b60016020528060005260406000206000915090508060000154908060010160009054906101000a900473ffffffffffffffffffffffffffffffffffffffff1690806002018054610bef906115c9565b80601f0160208091040260200160405190810160405280929190818152602001828054610c1b906115c9565b8015610c685780601f10610c3d57610100808354040283529160200191610c68565b820191906000526020600020905b815481529060010190602001808311610c4b57829003601f168201915b5050505050908060030154908060040154908060050154908060060160009054906101000a900460ff16905087565b60008211610cda576040517f08c379a0000000000000000000000000000000000000000000000000000000008152600401610cd190611891565b60405180910390fd5b60008111610d1d576040517f08c379a0000000000000000000000000000000000000000000000000000000008152600401610d1490611c31565b60405180910390fd5b600080815480929190610d2f90611552565b91905055506040518060e0016040528060005481526020013373ffffffffffffffffffffffffffffffffffffffff168152602001848152602001838152602001828152602001600081526020016001151581525060016000805481526020019081526020016000206000820151816000015560208201518160010160006101000a81548173ffffffffffffffffffffffffffffffffffffffff021916908373ffffffffffffffffffffffffffffffffffffffff1602179055506040820151816002019081610dfd9190611dfd565b50606082015181600301556080820151816004015560a0820151816005015560c08201518160060160006101000a81548160ff0219169083151502179055509050507feff9c77bc81011526aa06258443e09f9e394f6f3511c79459acbc785812607ff60005433858585604051610e78959493929190611ecf565b60405180910390a1505050565b6040518060e0016040528060008152602001600073ffffffffffffffffffffffffffffffffffffffff168152602001606081526020016000815260200160008152602001600081526020016000151581525090565b600081519050919050565b600082825260208201905092915050565b6000819050602082019050919050565b6000819050919050565b610f1981610f06565b82525050565b600073ffffffffffffffffffffffffffffffffffffffff82169050919050565b6000610f4a82610f1f565b9050919050565b610f5a81610f3f565b82525050565b600081519050919050565b600082825260208201905092915050565b60005b83811015610f9a578082015181840152602081019050610f7f565b60008484015250505050565b6000601f19601f8301169050919050565b6000610fc282610f60565b610fcc8185610f6b565b9350610fdc818560208601610f7c565b610fe581610fa6565b840191505092915050565b60008115159050919050565b61100581610ff0565b82525050565b600060e0830160008301516110236000860182610f10565b5060208301516110366020860182610f51565b506040830151848203604086015261104e8282610fb7565b91505060608301516110636060860182610f10565b5060808301516110766080860182610f10565b5060a083015161108960a0860182610f10565b5060c083015161109c60c0860182610ffc565b508091505092915050565b60006110b3838361100b565b905092915050565b6000602082019050919050565b60006110d382610eda565b6110dd8185610ee5565b9350836020820285016110ef85610ef6565b8060005b8581101561112b578484038952815161110c85826110a7565b9450611117836110bb565b925060208a019950506001810190506110f3565b50829750879550505050505092915050565b6000602082019050818103600083015261115781846110c8565b905092915050565b6000604051905090565b600080fd5b600080fd5b61117c81610f06565b811461118757600080fd5b50565b60008135905061119981611173565b92915050565b6000602082840312156111b5576111b4611169565b5b60006111c38482850161118a565b91505092915050565b60006111d782610f1f565b9050919050565b6111e7816111cc565b81146111f257600080fd5b50565b600081359050611204816111de565b92915050565b6000602082840312156112205761121f611169565b5b600061122e848285016111f5565b91505092915050565b61124081610f06565b82525050565b600060208201905061125b6000830184611237565b92915050565b6000806040838503121561127857611277611169565b5b60006112868582860161118a565b92505060206112978582860161118a565b9150509250929050565b6112aa81610f3f565b82525050565b600082825260208201905092915050565b60006112cc82610f60565b6112d681856112b0565b93506112e6818560208601610f7c565b6112ef81610fa6565b840191505092915050565b61130381610ff0565b82525050565b600060e08201905061131e600083018a611237565b61132b60208301896112a1565b818103604083015261133d81886112c1565b905061134c6060830187611237565b6113596080830186611237565b61136660a0830185611237565b61137360c08301846112fa565b98975050505050505050565b600080fd5b600080fd5b7f4e487b7100000000000000000000000000000000000000000000000000000000600052604160045260246000fd5b6113c182610fa6565b810181811067ffffffffffffffff821117156113e0576113df611389565b5b80604052505050565b60006113f361115f565b90506113ff82826113b8565b919050565b600067ffffffffffffffff82111561141f5761141e611389565b5b61142882610fa6565b9050602081019050919050565b82818337600083830152505050565b600061145761145284611404565b6113e9565b90508281526020810184848401111561147357611472611384565b5b61147e848285611435565b509392505050565b600082601f83011261149b5761149a61137f565b5b81356114ab848260208601611444565b91505092915050565b6000806000606084860312156114cd576114cc611169565b5b600084013567ffffffffffffffff8111156114eb576114ea61116e565b5b6114f786828701611486565b93505060206115088682870161118a565b92505060406115198682870161118a565b9150509250925092565b7f4e487b7100000000000000000000000000000000000000000000000000000000600052601160045260246000fd5b600061155d82610f06565b91507fffffffffffffffffffffffffffffffffffffffffffffffffffffffffffffffff820361158f5761158e611523565b5b600182019050919050565b7f4e487b7100000000000000000000000000000000000000000000000000000000600052602260045260246000fd5b600060028204905060018216806115e157607f821691505b6020821081036115f4576115f361159a565b5b50919050565b7f4e487b7100000000000000000000000000000000000000000000000000000000600052603260045260246000fd5b7f416d6f756e74206d7573742062652067726561746572207468616e207a65726f600082015250565b600061165f6020836112b0565b915061166a82611629565b602082019050919050565b6000602082019050818103600083015261168e81611652565b9050919050565b7f416d6f756e7420657863656564732062616c616e636500000000000000000000600082015250565b60006116cb6016836112b0565b91506116d682611695565b602082019050919050565b600060208201905081810360008301526116fa816116be565b9050919050565b600061170c82610f06565b915061171783610f06565b925082820390508181111561172f5761172e611523565b5b92915050565b61173e816111cc565b82525050565b60006040820190506117596000830185611735565b6117666020830184611237565b9392505050565b7f4974656d20646f6573206e6f7420657869737400000000000000000000000000600082015250565b60006117a36013836112b0565b91506117ae8261176d565b602082019050919050565b600060208201905081810360008301526117d281611796565b9050919050565b7f4f6e6c792073656c6c65722063616e2075706461746520707269636500000000600082015250565b600061180f601c836112b0565b915061181a826117d9565b602082019050919050565b6000602082019050818103600083015261183e81611802565b9050919050565b7f5072696365206d7573742062652067726561746572207468616e207a65726f00600082015250565b600061187b601f836112b0565b915061188682611845565b602082019050919050565b600060208201905081810360008301526118aa8161186e565b9050919050565b7f4974656d20616c726561647920736f6c64206f75740000000000000000000000600082015250565b60006118e76015836112b0565b91506118f2826118b1565b602082019050919050565b60006020820190508181036000830152611916816118da565b9050919050565b60006060820190506119326000830186611237565b61193f6020830185611237565b61194c6040830184611237565b949350505050565b7f5175616e74697479206d7573742062652067726561746572207468616e207a6560008201527f726f000000000000000000000000000000000000000000000000000000000000602082015250565b60006119b06022836112b0565b91506119bb82611954565b604082019050919050565b600060208201905081810360008301526119df816119a3565b9050919050565b60006119f182610f06565b91506119fc83610f06565b9250828201905080821115611a1457611a13611523565b5b92915050565b7f4e6f7420656e6f7567682073746f636b20617661696c61626c65000000000000600082015250565b6000611a50601a836112b0565b9150611a5b82611a1a565b602082019050919050565b60006020820190508181036000830152611a7f81611a43565b9050919050565b6000611a9182610f06565b9150611a9c83610f06565b9250828202611aaa81610f06565b91508282048414831517611ac157611ac0611523565b5b5092915050565b7f4e6f7420656e6f7567682065746865722073656e740000000000000000000000600082015250565b6000611afe6015836112b0565b9150611b0982611ac8565b602082019050919050565b60006020820190508181036000830152611b2d81611af1565b9050919050565b7f53656c6c65722063616e6e6f7420627579207468656972206f776e206974656d600082015250565b6000611b6a6020836112b0565b9150611b7582611b34565b602082019050919050565b60006020820190508181036000830152611b9981611b5d565b9050919050565b6000608082019050611bb56000830187611237565b611bc26020830186611735565b611bcf6040830185611237565b611bdc6060830184611237565b95945050505050565b7f53746f636b206d7573742062652067726561746572207468616e207a65726f00600082015250565b6000611c1b601f836112b0565b9150611c2682611be5565b602082019050919050565b60006020820190508181036000830152611c4a81611c0e565b9050919050565b60008190508160005260206000209050919050565b60006020601f8301049050919050565b600082821b905092915050565b600060088302611cb37fffffffffffffffffffffffffffffffffffffffffffffffffffffffffffffffff82611c76565b611cbd8683611c76565b95508019841693508086168417925050509392505050565b6000819050919050565b6000611cfa611cf5611cf084610f06565b611cd5565b610f06565b9050919050565b6000819050919050565b611d1483611cdf565b611d28611d2082611d01565b848454611c83565b825550505050565b600090565b611d3d611d30565b611d48818484611d0b565b505050565b5b81811015611d6c57611d61600082611d35565b600181019050611d4e565b5050565b601f821115611db157611d8281611c51565b611d8b84611c66565b81016020851015611d9a578190505b611dae611da685611c66565b830182611d4d565b50505b505050565b600082821c905092915050565b6000611dd460001984600802611db6565b1980831691505092915050565b6000611ded8383611dc3565b9150826002028217905092915050565b611e0682610f60565b67ffffffffffffffff811115611e1f57611e1e611389565b5b611e2982546115c9565b611e34828285611d70565b600060209050601f831160018114611e675760008415611e55578287015190505b611e5f8582611de1565b865550611ec7565b601f198416611e7586611c51565b60005b82811015611e9d57848901518255600182019150602085019450602081019050611e78565b86831015611eba5784890151611eb6601f891682611dc3565b8355505b6001600288020188555050505b505050505050565b600060a082019050611ee46000830188611237565b611ef16020830187611735565b8181036040830152611f0381866112c1565b9050611f126060830185611237565b611f1f6080830184611237565b969550505050505056fea264697066735822122056df459f1a0676bba9c8112d33d17b83f2d16574a1ce50e5cd32d66e55da6a3364736f6c634300081c0033",
  "linkReferences": {},
  "deployedLinkReferences": {}
}